{
  "_format": "hh-sol-artifact-1",
  "contractName": "Precompiles",
  "sourceName": "contracts/Precompiles.sol",
  "abi": [
    {
      "inputs": [
        {
          "internalType": "uint256",
          "name": "base",
          "type": "uint256"
        },
        {
          "internalType": "uint256",
          "name": "e",
          "type": "uint256"
        },
        {
          "internalType": "uint256",
          "name": "m",
          "type": "uint256"
        }
      ],
      "name": "expmod",
      "outputs": [
        {
          "internalType": "uint256",
          "name": "o",
          "type": "uint256"
        }
      ],
      "stateMutability": "nonpayable",
      "type": "function"
    }
  ],
  "bytecode": "0x608060405234801561001057600080fd5b5060cd8061001f6000396000f3fe6080604052348015600f57600080fd5b506004361060285760003560e01c8063783ce45814602d575b600080fd5b603c60383660046095565b604e565b60405190815260200160405180910390f35b600060405160208152602080820152602060408201528460608201528360808201528260a082015260208160c08360056107d05a03fa608c57600080fd5b51949350505050565b60008060006060848603121560a957600080fd5b50508135936020830135935060409092013591905056fea164736f6c6343000809000a",
  "linkReferences": {},
  "deployedLinkReferences": {}
}