{
  "_format": "hh-sol-artifact-1",
  "contractName": "Create2Deployer",
  "sourceName": "contracts/TestSelfDestruct.sol",
  "abi": [
    {
      "inputs": [],
      "name": "deploy",
      "outputs": [],
      "stateMutability": "nonpayable",
      "type": "function"
    },
    {
      "inputs": [],
      "name": "t",
      "outputs": [
        {
          "internalType": "contract TestSelfDestruct",
          "name": "",
          "type": "address"
        }
      ],
      "stateMutability": "view",
      "type": "function"
    }
  ],
  "bytecode": "0x608060405234801561001057600080fd5b506101e6806100206000396000f3fe608060405234801561001057600080fd5b50600436106100365760003560e01c8063775c300c1461003b57806392d0d15314610045575b600080fd5b61004361008e565b005b6000546100659073ffffffffffffffffffffffffffffffffffffffff1681565b60405173ffffffffffffffffffffffffffffffffffffffff909116815260200160405180910390f35b60405160009061009d90610105565b8190604051809103906000f59050801580156100bd573d6000803e3d6000fd5b50600080547fffffffffffffffffffffffff00000000000000000000000000000000000000001673ffffffffffffffffffffffffffffffffffffffff92909216919091179055565b60c8806101128339019056fe608060405234801561001057600080fd5b5060a98061001f6000396000f3fe60806040526004361060205760003560e01c80637ab38e1614602b57600080fd5b36602657005b600080fd5b348015603657600080fd5b50604660423660046061565b6048565b005b8073ffffffffffffffffffffffffffffffffffffffff16ff5b600060208284031215607257600080fd5b813573ffffffffffffffffffffffffffffffffffffffff81168114609557600080fd5b939250505056fea164736f6c6343000809000aa164736f6c6343000809000a",
  "linkReferences": {},
  "deployedLinkReferences": {}
}