{
  "_format": "hh-sol-artifact-1",
  "contractName": "TestSelfDestruct",
  "sourceName": "contracts/TestSelfDestruct.sol",
  "abi": [
    {
      "inputs": [
        {
          "internalType": "address payable",
          "name": "addr",
          "type": "address"
        }
      ],
      "name": "suicideMethod",
      "outputs": [],
      "stateMutability": "nonpayable",
      "type": "function"
    },
    {
      "stateMutability": "payable",
      "type": "receive"
    }
  ],
  "bytecode": "0x608060405234801561001057600080fd5b5060a98061001f6000396000f3fe60806040526004361060205760003560e01c80637ab38e1614602b57600080fd5b36602657005b600080fd5b348015603657600080fd5b50604660423660046061565b6048565b005b8073ffffffffffffffffffffffffffffffffffffffff16ff5b600060208284031215607257600080fd5b813573ffffffffffffffffffffffffffffffffffffffff81168114609557600080fd5b939250505056fea164736f6c6343000809000a",
  "linkReferences": {},
  "deployedLinkReferences": {}
}