{
  "contracts/SelfDestruction.sol": {
    "SelfDestruction": {
      "abi": [
        {
          "inputs": [],
          "name": "data",
          "outputs": [
            {
              "internalType": "bytes32",
              "name": "",
              "type": "bytes32"
            }
          ],
          "stateMutability": "view",
          "type": "function"
        },
        {
          "inputs": [],
          "name": "destruct",
          "outputs": [],
          "stateMutability": "nonpayable",
          "type": "function"
        },
        {
          "inputs": [
            {
              "internalType": "bytes32",
              "name": "_data",
              "type": "bytes32"
            }
          ],
          "name": "setData",
          "outputs": [],
          "stateMutability": "nonpayable",
          "type": "function"
        }
      ],
      "evm": {
        "bytecode": {
          "linkReferences": {},
          "object": "6080604052636162636460005534801561001857600080fd5b506098806100276000396000f3fe6080604052348015600f57600080fd5b5060043610603c5760003560e01c80632b68b9c614604157806341657ee614604957806373d4a13a146059575b600080fd5b60473080ff5b005b604760543660046073565b600055565b606160005481565b60405190815260200160405180910390f35b600060208284031215608457600080fd5b503591905056fea164736f6c6343000809000a",
          "opcodes": "PUSH1 0x80 PUSH1 0x40 MSTORE PUSH4 0x61626364 PUSH1 0x0 SSTORE CALLVALUE DUP1 ISZERO PUSH2 0x18 JUMPI PUSH1 0x0 DUP1 REVERT JUMPDEST POP PUSH1 0x98 DUP1 PUSH2 0x27 PUSH1 0x0 CODECOPY PUSH1 0x0 RETURN INVALID PUSH1 0x80 PUSH1 0x40 MSTORE CALLVALUE DUP1 ISZERO PUSH1 0xF JUMPI PUSH1 0x0 DUP1 REVERT JUMPDEST POP PUSH1 0x4 CALLDATASIZE LT PUSH1 0x3C JUMPI PUSH1 0x0 CALLDATALOAD PUSH1 0xE0 SHR DUP1 PUSH4 0x2B68B9C6 EQ PUSH1 0x41 JUMPI DUP1 PUSH4 0x41657EE6 EQ PUSH1 0x49 JUMPI DUP1 PUSH4 0x73D4A13A EQ PUSH1 0x59 JUMPI JUMPDEST PUSH1 0x0 DUP1 REVERT JUMPDEST PUSH1 0x47 ADDRESS DUP1 SELFDESTRUCT JUMPDEST STOP JUMPDEST PUSH1 0x47 PUSH1 0x54 CALLDATASIZE PUSH1 0x4 PUSH1 0x73 JUMP JUMPDEST PUSH1 0x0 SSTORE JUMP JUMPDEST PUSH1 0x61 PUSH1 0x0 SLOAD DUP2 JUMP JUMPDEST PUSH1 0x40 MLOAD SWAP1 DUP2 MSTORE PUSH1 0x20 ADD PUSH1 0x40 MLOAD DUP1 SWAP2 SUB SWAP1 RETURN JUMPDEST PUSH1 0x0 PUSH1 0x20 DUP3 DUP5 SUB SLT ISZERO PUSH1 0x84 JUMPI PUSH1 0x0 DUP1 REVERT JUMPDEST POP CALLDATALOAD SWAP2 SWAP1 POP JUMP INVALID LOG1 PUSH5 0x736F6C6343 STOP ADDMOD MULMOD STOP EXP "
        },
        "methodIdentifiers": {
          "data()": "73d4a13a",
          "destruct()": "2b68b9c6",
          "setData(bytes32)": "41657ee6"
        }
      },
      "storageLayout": {
        "storage": [
          {
            "astId": 4,
            "contract": "contracts/SelfDestruction.sol:SelfDestruction",
            "label": "data",
            "offset": 0,
            "slot": "0",
            "type": "t_bytes32"
          }
        ],
        "types": {
          "t_bytes32": {
            "encoding": "inplace",
            "label": "bytes32",
            "numberOfBytes": "32"
          }
        }
      }
    }
  }
}