{
  "_format": "hh-sol-artifact-1",
  "contractName": "MockGovernorBravoDelegate",
  "sourceName": "contracts/MockGovernorBravoDelegate.sol",
  "abi": [
    {
      "anonymous": false,
      "inputs": [
        {
          "indexed": false,
          "internalType": "address",
          "name": "oldAdmin",
          "type": "address"
        },
        {
          "indexed": false,
          "internalType": "address",
          "name": "newAdmin",
          "type": "address"
        }
      ],
      "name": "NewAdmin",
      "type": "event"
    },
    {
      "anonymous": false,
      "inputs": [
        {
          "indexed": false,
          "internalType": "address",
          "name": "oldImplementation",
          "type": "address"
        },
        {
          "indexed": false,
          "internalType": "address",
          "name": "newImplementation",
          "type": "address"
        }
      ],
      "name": "NewImplementation",
      "type": "event"
    },
    {
      "anonymous": false,
      "inputs": [
        {
          "indexed": false,
          "internalType": "address",
          "name": "oldPendingAdmin",
          "type": "address"
        },
        {
          "indexed": false,
          "internalType": "address",
          "name": "newPendingAdmin",
          "type": "address"
        }
      ],
      "name": "NewPendingAdmin",
      "type": "event"
    },
    {
      "anonymous": false,
      "inputs": [
        {
          "indexed": false,
          "internalType": "uint256",
          "name": "id",
          "type": "uint256"
        }
      ],
      "name": "ProposalCanceled",
      "type": "event"
    },
    {
      "anonymous": false,
      "inputs": [
        {
          "indexed": false,
          "internalType": "uint256",
          "name": "id",
          "type": "uint256"
        },
        {
          "indexed": false,
          "internalType": "address",
          "name": "proposer",
          "type": "address"
        },
        {
          "indexed": false,
          "internalType": "address[]",
          "name": "targets",
          "type": "address[]"
        },
        {
          "indexed": false,
          "internalType": "uint256[]",
          "name": "values",
          "type": "uint256[]"
        },
        {
          "indexed": false,
          "internalType": "string[]",
          "name": "signatures",
          "type": "string[]"
        },
        {
          "indexed": false,
          "internalType": "bytes[]",
          "name": "calldatas",
          "type": "bytes[]"
        },
        {
          "indexed": false,
          "internalType": "uint256",
          "name": "startTimestamp",
          "type": "uint256"
        },
        {
          "indexed": false,
          "internalType": "uint256",
          "name": "endTimestamp",
          "type": "uint256"
        },
        {
          "indexed": false,
          "internalType": "string",
          "name": "description",
          "type": "string"
        }
      ],
      "name": "ProposalCreated",
      "type": "event"
    },
    {
      "anonymous": false,
      "inputs": [
        {
          "indexed": false,
          "internalType": "uint256",
          "name": "id",
          "type": "uint256"
        }
      ],
      "name": "ProposalExecuted",
      "type": "event"
    },
    {
      "anonymous": false,
      "inputs": [
        {
          "indexed": false,
          "internalType": "uint256",
          "name": "id",
          "type": "uint256"
        },
        {
          "indexed": false,
          "internalType": "uint256",
          "name": "eta",
          "type": "uint256"
        }
      ],
      "name": "ProposalQueued",
      "type": "event"
    },
    {
      "anonymous": false,
      "inputs": [
        {
          "indexed": false,
          "internalType": "uint256",
          "name": "oldProposalThreshold",
          "type": "uint256"
        },
        {
          "indexed": false,
          "internalType": "uint256",
          "name": "newProposalThreshold",
          "type": "uint256"
        }
      ],
      "name": "ProposalThresholdSet",
      "type": "event"
    },
    {
      "anonymous": false,
      "inputs": [
        {
          "indexed": true,
          "internalType": "address",
          "name": "voter",
          "type": "address"
        },
        {
          "indexed": false,
          "internalType": "uint256",
          "name": "proposalId",
          "type": "uint256"
        },
        {
          "indexed": false,
          "internalType": "uint8",
          "name": "support",
          "type": "uint8"
        },
        {
          "indexed": false,
          "internalType": "uint256",
          "name": "votes",
          "type": "uint256"
        },
        {
          "indexed": false,
          "internalType": "string",
          "name": "reason",
          "type": "string"
        }
      ],
      "name": "VoteCast",
      "type": "event"
    },
    {
      "anonymous": false,
      "inputs": [
        {
          "indexed": false,
          "internalType": "uint256",
          "name": "oldVotingDelay",
          "type": "uint256"
        },
        {
          "indexed": false,
          "internalType": "uint256",
          "name": "newVotingDelay",
          "type": "uint256"
        }
      ],
      "name": "VotingDelaySet",
      "type": "event"
    },
    {
      "anonymous": false,
      "inputs": [
        {
          "indexed": false,
          "internalType": "uint256",
          "name": "oldVotingPeriod",
          "type": "uint256"
        },
        {
          "indexed": false,
          "internalType": "uint256",
          "name": "newVotingPeriod",
          "type": "uint256"
        }
      ],
      "name": "VotingPeriodSet",
      "type": "event"
    },
    {
      "constant": true,
      "inputs": [],
      "name": "BALLOT_TYPEHASH",
      "outputs": [
        {
          "internalType": "bytes32",
          "name": "",
          "type": "bytes32"
        }
      ],
      "payable": false,
      "stateMutability": "view",
      "type": "function"
    },
    {
      "constant": true,
      "inputs": [],
      "name": "DOMAIN_TYPEHASH",
      "outputs": [
        {
          "internalType": "bytes32",
          "name": "",
          "type": "bytes32"
        }
      ],
      "payable": false,
      "stateMutability": "view",
      "type": "function"
    },
    {
      "constant": true,
      "inputs": [],
      "name": "MAX_PROPOSAL_THRESHOLD",
      "outputs": [
        {
          "internalType": "uint256",
          "name": "",
          "type": "uint256"
        }
      ],
      "payable": false,
      "stateMutability": "view",
      "type": "function"
    },
    {
      "constant": true,
      "inputs": [],
      "name": "MAX_VOTING_DELAY",
      "outputs": [
        {
          "internalType": "uint256",
          "name": "",
          "type": "uint256"
        }
      ],
      "payable": false,
      "stateMutability": "view",
      "type": "function"
    },
    {
      "constant": true,
      "inputs": [],
      "name": "MAX_VOTING_PERIOD",
      "outputs": [
        {
          "internalType": "uint256",
          "name": "",
          "type": "uint256"
        }
      ],
      "payable": false,
      "stateMutability": "view",
      "type": "function"
    },
    {
      "constant": true,
      "inputs": [],
      "name": "MIN_PROPOSAL_THRESHOLD",
      "outputs": [
        {
          "internalType": "uint256",
          "name": "",
          "type": "uint256"
        }
      ],
      "payable": false,
      "stateMutability": "view",
      "type": "function"
    },
    {
      "constant": true,
      "inputs": [],
      "name": "MIN_VOTING_DELAY",
      "outputs": [
        {
          "internalType": "uint256",
          "name": "",
          "type": "uint256"
        }
      ],
      "payable": false,
      "stateMutability": "view",
      "type": "function"
    },
    {
      "constant": true,
      "inputs": [],
      "name": "MIN_VOTING_PERIOD",
      "outputs": [
        {
          "internalType": "uint256",
          "name": "",
          "type": "uint256"
        }
      ],
      "payable": false,
      "stateMutability": "view",
      "type": "function"
    },
    {
      "constant": false,
      "inputs": [],
      "name": "_acceptAdmin",
      "outputs": [],
      "payable": false,
      "stateMutability": "nonpayable",
      "type": "function"
    },
    {
      "constant": false,
      "inputs": [],
      "name": "_initiate",
      "outputs": [],
      "payable": false,
      "stateMutability": "nonpayable",
      "type": "function"
    },
    {
      "constant": false,
      "inputs": [
        {
          "internalType": "address",
          "name": "newPendingAdmin",
          "type": "address"
        }
      ],
      "name": "_setPendingAdmin",
      "outputs": [],
      "payable": false,
      "stateMutability": "nonpayable",
      "type": "function"
    },
    {
      "constant": false,
      "inputs": [
        {
          "internalType": "uint256",
          "name": "newProposalThreshold",
          "type": "uint256"
        }
      ],
      "name": "_setProposalThreshold",
      "outputs": [],
      "payable": false,
      "stateMutability": "nonpayable",
      "type": "function"
    },
    {
      "constant": false,
      "inputs": [
        {
          "internalType": "uint256",
          "name": "newVotingDelay",
          "type": "uint256"
        }
      ],
      "name": "_setVotingDelay",
      "outputs": [],
      "payable": false,
      "stateMutability": "nonpayable",
      "type": "function"
    },
    {
      "constant": false,
      "inputs": [
        {
          "internalType": "uint256",
          "name": "newVotingDelay",
          "type": "uint256"
        }
      ],
      "name": "_setVotingDelayMock",
      "outputs": [],
      "payable": false,
      "stateMutability": "nonpayable",
      "type": "function"
    },
    {
      "constant": false,
      "inputs": [
        {
          "internalType": "uint256",
          "name": "newVotingPeriod",
          "type": "uint256"
        }
      ],
      "name": "_setVotingPeriod",
      "outputs": [],
      "payable": false,
      "stateMutability": "nonpayable",
      "type": "function"
    },
    {
      "constant": false,
      "inputs": [
        {
          "internalType": "uint256",
          "name": "newVotingPeriod",
          "type": "uint256"
        }
      ],
      "name": "_setVotingPeriodMock",
      "outputs": [],
      "payable": false,
      "stateMutability": "nonpayable",
      "type": "function"
    },
    {
      "constant": true,
      "inputs": [],
      "name": "admin",
      "outputs": [
        {
          "internalType": "address",
          "name": "",
          "type": "address"
        }
      ],
      "payable": false,
      "stateMutability": "view",
      "type": "function"
    },
    {
      "constant": true,
      "inputs": [],
      "name": "boba",
      "outputs": [
        {
          "internalType": "contract BobaInterface",
          "name": "",
          "type": "address"
        }
      ],
      "payable": false,
      "stateMutability": "view",
      "type": "function"
    },
    {
      "constant": false,
      "inputs": [
        {
          "internalType": "uint256",
          "name": "proposalId",
          "type": "uint256"
        }
      ],
      "name": "cancel",
      "outputs": [],
      "payable": false,
      "stateMutability": "nonpayable",
      "type": "function"
    },
    {
      "constant": false,
      "inputs": [
        {
          "internalType": "uint256",
          "name": "proposalId",
          "type": "uint256"
        },
        {
          "internalType": "uint8",
          "name": "support",
          "type": "uint8"
        }
      ],
      "name": "castVote",
      "outputs": [],
      "payable": false,
      "stateMutability": "nonpayable",
      "type": "function"
    },
    {
      "constant": false,
      "inputs": [
        {
          "internalType": "uint256",
          "name": "proposalId",
          "type": "uint256"
        },
        {
          "internalType": "uint8",
          "name": "support",
          "type": "uint8"
        },
        {
          "internalType": "uint8",
          "name": "v",
          "type": "uint8"
        },
        {
          "internalType": "bytes32",
          "name": "r",
          "type": "bytes32"
        },
        {
          "internalType": "bytes32",
          "name": "s",
          "type": "bytes32"
        }
      ],
      "name": "castVoteBySig",
      "outputs": [],
      "payable": false,
      "stateMutability": "nonpayable",
      "type": "function"
    },
    {
      "constant": false,
      "inputs": [
        {
          "internalType": "uint256",
          "name": "proposalId",
          "type": "uint256"
        },
        {
          "internalType": "uint8",
          "name": "support",
          "type": "uint8"
        },
        {
          "internalType": "string",
          "name": "reason",
          "type": "string"
        }
      ],
      "name": "castVoteWithReason",
      "outputs": [],
      "payable": false,
      "stateMutability": "nonpayable",
      "type": "function"
    },
    {
      "constant": false,
      "inputs": [
        {
          "internalType": "uint256",
          "name": "proposalId",
          "type": "uint256"
        }
      ],
      "name": "execute",
      "outputs": [],
      "payable": true,
      "stateMutability": "payable",
      "type": "function"
    },
    {
      "constant": true,
      "inputs": [
        {
          "internalType": "uint256",
          "name": "proposalId",
          "type": "uint256"
        }
      ],
      "name": "getActions",
      "outputs": [
        {
          "internalType": "address[]",
          "name": "targets",
          "type": "address[]"
        },
        {
          "internalType": "uint256[]",
          "name": "values",
          "type": "uint256[]"
        },
        {
          "internalType": "string[]",
          "name": "signatures",
          "type": "string[]"
        },
        {
          "internalType": "bytes[]",
          "name": "calldatas",
          "type": "bytes[]"
        }
      ],
      "payable": false,
      "stateMutability": "view",
      "type": "function"
    },
    {
      "constant": true,
      "inputs": [
        {
          "internalType": "uint256",
          "name": "proposalId",
          "type": "uint256"
        },
        {
          "internalType": "address",
          "name": "voter",
          "type": "address"
        }
      ],
      "name": "getReceipt",
      "outputs": [
        {
          "components": [
            {
              "internalType": "bool",
              "name": "hasVoted",
              "type": "bool"
            },
            {
              "internalType": "uint8",
              "name": "support",
              "type": "uint8"
            },
            {
              "internalType": "uint96",
              "name": "votes",
              "type": "uint96"
            }
          ],
          "internalType": "struct GovernorBravoDelegateStorageV1.Receipt",
          "name": "",
          "type": "tuple"
        }
      ],
      "payable": false,
      "stateMutability": "view",
      "type": "function"
    },
    {
      "constant": true,
      "inputs": [],
      "name": "implementation",
      "outputs": [
        {
          "internalType": "address",
          "name": "",
          "type": "address"
        }
      ],
      "payable": false,
      "stateMutability": "view",
      "type": "function"
    },
    {
      "constant": true,
      "inputs": [],
      "name": "initialProposalId",
      "outputs": [
        {
          "internalType": "uint256",
          "name": "",
          "type": "uint256"
        }
      ],
      "payable": false,
      "stateMutability": "view",
      "type": "function"
    },
    {
      "constant": false,
      "inputs": [
        {
          "internalType": "address",
          "name": "timelock_",
          "type": "address"
        },
        {
          "internalType": "address",
          "name": "bobaToken_",
          "type": "address"
        },
        {
          "internalType": "address",
          "name": "xbobaToken_",
          "type": "address"
        },
        {
          "internalType": "uint256",
          "name": "votingPeriod_",
          "type": "uint256"
        },
        {
          "internalType": "uint256",
          "name": "votingDelay_",
          "type": "uint256"
        },
        {
          "internalType": "uint256",
          "name": "proposalThreshold_",
          "type": "uint256"
        }
      ],
      "name": "initialize",
      "outputs": [],
      "payable": false,
      "stateMutability": "nonpayable",
      "type": "function"
    },
    {
      "constant": true,
      "inputs": [
        {
          "internalType": "address",
          "name": "",
          "type": "address"
        }
      ],
      "name": "latestProposalIds",
      "outputs": [
        {
          "internalType": "uint256",
          "name": "",
          "type": "uint256"
        }
      ],
      "payable": false,
      "stateMutability": "view",
      "type": "function"
    },
    {
      "constant": true,
      "inputs": [],
      "name": "name",
      "outputs": [
        {
          "internalType": "string",
          "name": "",
          "type": "string"
        }
      ],
      "payable": false,
      "stateMutability": "view",
      "type": "function"
    },
    {
      "constant": true,
      "inputs": [],
      "name": "pendingAdmin",
      "outputs": [
        {
          "internalType": "address",
          "name": "",
          "type": "address"
        }
      ],
      "payable": false,
      "stateMutability": "view",
      "type": "function"
    },
    {
      "constant": true,
      "inputs": [],
      "name": "proposalCount",
      "outputs": [
        {
          "internalType": "uint256",
          "name": "",
          "type": "uint256"
        }
      ],
      "payable": false,
      "stateMutability": "view",
      "type": "function"
    },
    {
      "constant": true,
      "inputs": [],
      "name": "proposalMaxOperations",
      "outputs": [
        {
          "internalType": "uint256",
          "name": "",
          "type": "uint256"
        }
      ],
      "payable": false,
      "stateMutability": "view",
      "type": "function"
    },
    {
      "constant": true,
      "inputs": [],
      "name": "proposalThreshold",
      "outputs": [
        {
          "internalType": "uint256",
          "name": "",
          "type": "uint256"
        }
      ],
      "payable": false,
      "stateMutability": "view",
      "type": "function"
    },
    {
      "constant": true,
      "inputs": [
        {
          "internalType": "uint256",
          "name": "",
          "type": "uint256"
        }
      ],
      "name": "proposals",
      "outputs": [
        {
          "internalType": "uint256",
          "name": "id",
          "type": "uint256"
        },
        {
          "internalType": "address",
          "name": "proposer",
          "type": "address"
        },
        {
          "internalType": "uint256",
          "name": "eta",
          "type": "uint256"
        },
        {
          "internalType": "string",
          "name": "description",
          "type": "string"
        },
        {
          "internalType": "uint256",
          "name": "startBlock",
          "type": "uint256"
        },
        {
          "internalType": "uint256",
          "name": "startTimestamp",
          "type": "uint256"
        },
        {
          "internalType": "uint256",
          "name": "endTimestamp",
          "type": "uint256"
        },
        {
          "internalType": "uint256",
          "name": "forVotes",
          "type": "uint256"
        },
        {
          "internalType": "uint256",
          "name": "againstVotes",
          "type": "uint256"
        },
        {
          "internalType": "uint256",
          "name": "abstainVotes",
          "type": "uint256"
        },
        {
          "internalType": "bool",
          "name": "canceled",
          "type": "bool"
        },
        {
          "internalType": "bool",
          "name": "executed",
          "type": "bool"
        }
      ],
      "payable": false,
      "stateMutability": "view",
      "type": "function"
    },
    {
      "constant": false,
      "inputs": [
        {
          "internalType": "address[]",
          "name": "targets",
          "type": "address[]"
        },
        {
          "internalType": "uint256[]",
          "name": "values",
          "type": "uint256[]"
        },
        {
          "internalType": "string[]",
          "name": "signatures",
          "type": "string[]"
        },
        {
          "internalType": "bytes[]",
          "name": "calldatas",
          "type": "bytes[]"
        },
        {
          "internalType": "string",
          "name": "description",
          "type": "string"
        }
      ],
      "name": "propose",
      "outputs": [
        {
          "internalType": "uint256",
          "name": "",
          "type": "uint256"
        }
      ],
      "payable": false,
      "stateMutability": "nonpayable",
      "type": "function"
    },
    {
      "constant": false,
      "inputs": [
        {
          "internalType": "uint256",
          "name": "proposalId",
          "type": "uint256"
        }
      ],
      "name": "queue",
      "outputs": [],
      "payable": false,
      "stateMutability": "nonpayable",
      "type": "function"
    },
    {
      "constant": true,
      "inputs": [],
      "name": "quorumVotes",
      "outputs": [
        {
          "internalType": "uint256",
          "name": "",
          "type": "uint256"
        }
      ],
      "payable": false,
      "stateMutability": "view",
      "type": "function"
    },
    {
      "constant": true,
      "inputs": [
        {
          "internalType": "uint256",
          "name": "proposalId",
          "type": "uint256"
        }
      ],
      "name": "state",
      "outputs": [
        {
          "internalType": "enum GovernorBravoDelegateStorageV1.ProposalState",
          "name": "",
          "type": "uint8"
        }
      ],
      "payable": false,
      "stateMutability": "view",
      "type": "function"
    },
    {
      "constant": true,
      "inputs": [],
      "name": "timelock",
      "outputs": [
        {
          "internalType": "contract TimelockInterface",
          "name": "",
          "type": "address"
        }
      ],
      "payable": false,
      "stateMutability": "view",
      "type": "function"
    },
    {
      "constant": true,
      "inputs": [],
      "name": "votingDelay",
      "outputs": [
        {
          "internalType": "uint256",
          "name": "",
          "type": "uint256"
        }
      ],
      "payable": false,
      "stateMutability": "view",
      "type": "function"
    },
    {
      "constant": true,
      "inputs": [],
      "name": "votingPeriod",
      "outputs": [
        {
          "internalType": "uint256",
          "name": "",
          "type": "uint256"
        }
      ],
      "payable": false,
      "stateMutability": "view",
      "type": "function"
    },
    {
      "constant": true,
      "inputs": [],
      "name": "xboba",
      "outputs": [
        {
          "internalType": "contract BobaInterface",
          "name": "",
          "type": "address"
        }
      ],
      "payable": false,
      "stateMutability": "view",
      "type": "function"
    }
  ],
  "bytecode": "0x608060405234801561001057600080fd5b50614ea5806100206000396000f3fe6080604052600436106102dc5760003560e01c80637b3c71d311610184578063d33219b4116100d6578063e23a9a521161008a578063f851a44011610064578063f851a44014610770578063fc4eee4214610785578063fe0d94c11461079a576102dc565b8063e23a9a5214610719578063e48083fe14610746578063e9c714f21461075b576102dc565b8063da95691a116100bb578063da95691a146106c4578063ddf0b009146106e4578063deaaa7cc14610704576102dc565b8063d33219b41461069a578063da35c664146106af576102dc565b8063ad5121b811610138578063b71d1a0c11610112578063b71d1a0c14610645578063bb20590414610665578063c501f81614610685576102dc565b8063ad5121b8146105f9578063b11262631461061b578063b58131b014610630576102dc565b8063878f148211610169578063878f1482146105af57806392e06d5f146105c4578063a64e024a146105e4576102dc565b80637b3c71d31461057a5780637bdbe4d01461059a576102dc565b806325fd935a1161023d5780633e4f49e6116101f15780635c60da1b116101cb5780635c60da1b14610530578063728cdbca14610545578063791f5d2314610565576102dc565b80633e4f49e6146104c357806340e58ee5146104f05780635678138814610510576102dc565b8063328dd98211610222578063328dd9821461045e5780633932abb11461048e5780633bccf4fd146104a3576102dc565b806325fd935a14610427578063267822471461043c576102dc565b806317ba1b8b1161029457806320606b701161027957806320606b70146103e8578063215809ca146103fd57806324bc1a6414610412576102dc565b806317ba1b8b146103a85780631dfb1b5a146103c8576102dc565b806306fdde03116102c557806306fdde03146103445780630ea2d98c1461036657806317977c6114610388576102dc565b8063013cf08b146102e157806302a251a314610322575b600080fd5b3480156102ed57600080fd5b506103016102fc366004613194565b6107ad565b6040516103199c9b9a99989796959493929190614b67565b60405180910390f35b34801561032e57600080fd5b506103376108c1565b6040516103199190614784565b34801561035057600080fd5b506103596108c7565b6040516103199190614840565b34801561037257600080fd5b50610386610381366004613194565b610900565b005b34801561039457600080fd5b506103376103a3366004612f8a565b6109ab565b3480156103b457600080fd5b506103866103c3366004613194565b6109bd565b3480156103d457600080fd5b506103866103e3366004613194565b610a61565b3480156103f457600080fd5b50610337610af7565b34801561040957600080fd5b50610337610b0e565b34801561041e57600080fd5b50610337610b15565b34801561043357600080fd5b50610337610b23565b34801561044857600080fd5b50610451610b31565b604051610319919061464a565b34801561046a57600080fd5b5061047e610479366004613194565b610b40565b6040516103199493929190614737565b34801561049a57600080fd5b50610337610e0b565b3480156104af57600080fd5b506103866104be366004613284565b610e11565b3480156104cf57600080fd5b506104e36104de366004613194565b611010565b6040516103199190614832565b3480156104fc57600080fd5b5061038661050b366004613194565b6111b0565b34801561051c57600080fd5b5061038661052b3660046131ec565b6114dc565b34801561053c57600080fd5b50610451611526565b34801561055157600080fd5b50610386610560366004612fb0565b611535565b34801561057157600080fd5b50610337611705565b34801561058657600080fd5b5061038661059536600461321c565b611713565b3480156105a657600080fd5b50610337611763565b3480156105bb57600080fd5b50610386611768565b3480156105d057600080fd5b506103866105df366004613194565b611831565b3480156105f057600080fd5b5061033761185b565b34801561060557600080fd5b5061060e611862565b6040516103199190614824565b34801561062757600080fd5b50610337611871565b34801561063c57600080fd5b50610337611878565b34801561065157600080fd5b50610386610660366004612f8a565b61187e565b34801561067157600080fd5b50610386610680366004613194565b611913565b34801561069157600080fd5b5061060e61193d565b3480156106a657600080fd5b5061060e61194c565b3480156106bb57600080fd5b5061033761195b565b3480156106d057600080fd5b506103376106df366004613037565b611961565b3480156106f057600080fd5b506103866106ff366004613194565b611e21565b34801561071057600080fd5b506103376120f2565b34801561072557600080fd5b506107396107343660046131b2565b6120fe565b6040516103199190614ab1565b34801561075257600080fd5b50610337612170565b34801561076757600080fd5b50610386612177565b34801561077c57600080fd5b5061045161226d565b34801561079157600080fd5b5061033761227c565b6103866107a8366004613194565b612282565b600b602090815260009182526040918290208054600180830154600280850154600786018054895161010096821615969096027fffffffffffffffffffffffffffffffffffffffffffffffffffffffffffffffff011692909204601f810188900488028501880190985287845293966001600160a01b039092169593949390919083018282801561087f5780601f106108545761010080835404028352916020019161087f565b820191906000526020600020905b81548152906001019060200180831161086257829003601f168201915b5050505060088301546009840154600a850154600b860154600c870154600d880154600e90980154969794969395509193909260ff808216916101009004168c565b60045481565b6040518060400160405280600d81526020017f426f626120476f7665726e6f720000000000000000000000000000000000000081525081565b6000546001600160a01b031633146109335760405162461bcd60e51b815260040161092a90614891565b60405180910390fd5b6203f48081101580156109495750621275008111155b6109655760405162461bcd60e51b815260040161092a906148e1565b60048054908290556040517f7e3f7f0708a84de9203036abaa450dccc85ad5ff52f78c170f3edb55cf5e88289061099f9083908590614c21565b60405180910390a15050565b600c6020526000908152604090205481565b6000546001600160a01b031633146109e75760405162461bcd60e51b815260040161092a90614a71565b690a968163f0a57b4000008110158015610a0b57506969e10de76676d08000008111155b610a275760405162461bcd60e51b815260040161092a90614981565b60058054908290556040517fccb45da8d5717e6c4544694297c4ba5cf151d455c9bb0ed4fc7a38411bc054619061099f9083908590614c21565b6000546001600160a01b03163314610a8b5760405162461bcd60e51b815260040161092a906148b1565b6202a3008110158015610aa1575062093a808111155b610abd5760405162461bcd60e51b815260040161092a90614911565b60038054908290556040517fc565b045403dc03c2eea82b81a0465edad9e2e7fc4d97e11421c209da93d7a939061099f9083908590614c21565b604051610b039061463f565b604051809103902081565b6203f48081565b69d3c21bcecceda100000081565b6969e10de76676d080000081565b6001546001600160a01b031681565b6060806060806000600b600087815260200190815260200160002090508060030181600401826005018360060183805480602002602001604051908101604052809291908181526020018280548015610bc257602002820191906000526020600020905b81546001600160a01b03168152600190910190602001808311610ba4575b5050505050935082805480602002602001604051908101604052809291908181526020018280548015610c1457602002820191906000526020600020905b815481526020019060010190808311610c00575b5050505050925081805480602002602001604051908101604052809291908181526020016000905b82821015610d055760008481526020908190208301805460408051601f60027fffffffffffffffffffffffffffffffffffffffffffffffffffffffffffffffff610100600187161502019094169390930492830185900485028101850190915281815292830182828015610cf15780601f10610cc657610100808354040283529160200191610cf1565b820191906000526020600020905b815481529060010190602001808311610cd457829003601f168201915b505050505081526020019060010190610c3c565b50505050915080805480602002602001604051908101604052809291908181526020016000905b82821015610df55760008481526020908190208301805460408051601f60027fffffffffffffffffffffffffffffffffffffffffffffffffffffffffffffffff610100600187161502019094169390930492830185900485028101850190915281815292830182828015610de15780601f10610db657610100808354040283529160200191610de1565b820191906000526020600020905b815481529060010190602001808311610dc457829003601f168201915b505050505081526020019060010190610d2c565b5050505090509450945094509450509193509193565b60035481565b6000604051610e1f9061463f565b60408051918290038220828201909152600d82527f426f626120476f7665726e6f72000000000000000000000000000000000000006020909201919091527f1ad158c379cc8fb970052e59be23591551a366de2599ef65b8df53f3f63b1b6e610e86612476565b30604051602001610e9a9493929190614792565b6040516020818303038152906040528051906020012090506000604051610ec090614603565b604051908190038120610ed991899089906020016147c7565b60405160208183030381529060405280519060200120905060008282604051602001610f0692919061460e565b604051602081830303815290604052805190602001209050600060018288888860405160008152602001604052604051610f4394939291906147ef565b6020604051602081039080840390855afa158015610f65573d6000803e3d6000fd5b50506040517fffffffffffffffffffffffffffffffffffffffffffffffffffffffffffffffe001519150506001600160a01b038116610fb65760405162461bcd60e51b815260040161092a90614941565b806001600160a01b03167fb8e138887d0aa13bab447e82de9d5c1777041ecd21ca36ba824ff1e6c07ddda48a8a610fee858e8e61247b565b604051610ffd93929190614c75565b60405180910390a2505050505050505050565b6000816007541015801561102657506006548210155b6110425760405162461bcd60e51b815260040161092a90614a81565b6000828152600b60205260409020600e81015460ff16156110675760029150506111ab565b8060090154421161107c5760009150506111ab565b80600a015442116110915760019150506111ab565b80600c015481600b01541115806110b5575069d3c21bcecceda100000081600b0154105b156110c45760039150506111ab565b60028101546110d75760049150506111ab565b600e810154610100900460ff16156110f35760079150506111ab565b6002810154600854604080517fc1a287e2000000000000000000000000000000000000000000000000000000008152905161119593926001600160a01b03169163c1a287e2916004808301926020929190829003018186803b15801561115857600080fd5b505afa15801561116c573d6000803e3d6000fd5b505050506040513d601f19601f820116820180604052506111909190810190613141565b612756565b42106111a55760069150506111ab565b60059150505b919050565b60076111bb82611010565b60078111156111c657fe5b14156111e45760405162461bcd60e51b815260040161092a90614a51565b6000818152600b6020526040902060018101546001600160a01b03163314806113665750600554600a54600183810154611356926001600160a01b039081169263782d6fe1929091169061123990439061277b565b6040518363ffffffff1660e01b815260040161125692919061468e565b60206040518083038186803b15801561126e57600080fd5b505afa158015611282573d6000803e3d6000fd5b505050506040513d601f19601f820116820180604052506112a691908101906132ec565b6009546001858101546001600160a01b039283169263782d6fe1929116906112cf90439061277b565b6040518363ffffffff1660e01b81526004016112ec92919061468e565b60206040518083038186803b15801561130457600080fd5b505afa158015611318573d6000803e3d6000fd5b505050506040513d601f19601f8201168201806040525061133c91908101906132ec565b6bffffffffffffffffffffffff169063ffffffff6127a316565b6bffffffffffffffffffffffff16105b6113825760405162461bcd60e51b815260040161092a906149e1565b600e810180547fffffffffffffffffffffffffffffffffffffffffffffffffffffffffffffff0016600117905560005b60038201548110156114ac576008546003830180546001600160a01b039092169163591fcdfe9190849081106113e457fe5b6000918252602090912001546004850180546001600160a01b03909216918590811061140c57fe5b906000526020600020015485600501858154811061142657fe5b9060005260206000200186600601868154811061143f57fe5b9060005260206000200187600201546040518663ffffffff1660e01b815260040161146e9594939291906146f6565b600060405180830381600087803b15801561148857600080fd5b505af115801561149c573d6000803e3d6000fd5b5050600190920191506113b29050565b507f789cf55be980739dad1d0699b93b58e806b51c9d96619bfa8fe0a28abaa7b30c8260405161099f9190614784565b337fb8e138887d0aa13bab447e82de9d5c1777041ecd21ca36ba824ff1e6c07ddda4838361150b84838361247b565b60405161151a93929190614c75565b60405180910390a25050565b6002546001600160a01b031681565b6008546001600160a01b03161561155e5760405162461bcd60e51b815260040161092a90614861565b6000546001600160a01b031633146115885760405162461bcd60e51b815260040161092a90614971565b6001600160a01b0386166115ae5760405162461bcd60e51b815260040161092a906148a1565b6001600160a01b0385166115d45760405162461bcd60e51b815260040161092a90614a11565b6001600160a01b0384166115fa5760405162461bcd60e51b815260040161092a90614a61565b6203f48083101580156116105750621275008311155b61162c5760405162461bcd60e51b815260040161092a90614a91565b6202a3008210158015611642575062093a808211155b61165e5760405162461bcd60e51b815260040161092a90614951565b690a968163f0a57b400000811015801561168257506969e10de76676d08000008111155b61169e5760405162461bcd60e51b815260040161092a90614921565b600880547fffffffffffffffffffffffff00000000000000000000000000000000000000009081166001600160a01b039889161790915560098054821696881696909617909555600a80549095169390951692909217909255600491909155600355600555565b690a968163f0a57b40000081565b337fb8e138887d0aa13bab447e82de9d5c1777041ecd21ca36ba824ff1e6c07ddda4858561174284838361247b565b8686604051611755959493929190614c2f565b60405180910390a250505050565b600a81565b6000546001600160a01b031633146117925760405162461bcd60e51b815260040161092a90614a31565b600654156117b25760405162461bcd60e51b815260040161092a906149b1565b600060078190556001600655600854604080517f0e18b68100000000000000000000000000000000000000000000000000000000815290516001600160a01b0390921692630e18b6819260048084019382900301818387803b15801561181757600080fd5b505af115801561182b573d6000803e3d6000fd5b50505050565b6000546001600160a01b031633146109655760405162461bcd60e51b815260040161092a90614891565b6212750081565b600a546001600160a01b031681565b62093a8081565b60055481565b6000546001600160a01b031633146118a85760405162461bcd60e51b815260040161092a90614871565b600180546001600160a01b038381167fffffffffffffffffffffffff00000000000000000000000000000000000000008316179092556040519116907fca4f2f25d0898edd99413412fb94012f9e54ec8142f9b093e7720646a95b16a99061099f9083908590614673565b6000546001600160a01b03163314610abd5760405162461bcd60e51b815260040161092a906148b1565b6009546001600160a01b031681565b6008546001600160a01b031681565b60075481565b6000600654600014156119865760405162461bcd60e51b815260040161092a906148c1565b600554600a54611a51906001600160a01b031663782d6fe1336119aa43600161277b565b6040518363ffffffff1660e01b81526004016119c7929190614658565b60206040518083038186803b1580156119df57600080fd5b505afa1580156119f3573d6000803e3d6000fd5b505050506040513d601f19601f82011682018060405250611a1791908101906132ec565b6009546001600160a01b031663782d6fe133611a3443600161277b565b6040518363ffffffff1660e01b81526004016112ec929190614658565b6bffffffffffffffffffffffff1611611a7c5760405162461bcd60e51b815260040161092a90614a41565b84518651148015611a8e575083518651145b8015611a9b575082518651145b611ab75760405162461bcd60e51b815260040161092a90614961565b8551611ad55760405162461bcd60e51b815260040161092a906149c1565b600a86511115611af75760405162461bcd60e51b815260040161092a906149f1565b336000908152600c60205260409020548015611b74576000611b1882611010565b90506001816007811115611b2857fe5b1415611b465760405162461bcd60e51b815260040161092a90614a21565b6000816007811115611b5457fe5b1415611b725760405162461bcd60e51b815260040161092a90614a01565b505b6000611b8242600354612756565b90506000611b9282600454612756565b6007805460010190559050611ba5612951565b6040518061020001604052806007548152602001336001600160a01b03168152602001600081526020018b81526020018a81526020018981526020018881526020018781526020016000815260200184815260200183815260200160008152602001600081526020016000815260200160001515815260200160001515815250905080600b6000836000015181526020019081526020016000206000820151816000015560208201518160010160006101000a8154816001600160a01b0302191690836001600160a01b03160217905550604082015181600201556060820151816003019080519060200190611c9c9291906129db565b5060808201518051611cb8916004840191602090910190612a58565b5060a08201518051611cd4916005840191602090910190612a9f565b5060c08201518051611cf0916006840191602090910190612af8565b5060e08201518051611d0c916007840191602090910190612b51565b506101008201518160080155610120820151816009015561014082015181600a015561016082015181600b015561018082015181600c01556101a082015181600d01556101c082015181600e0160006101000a81548160ff0219169083151502179055506101e082015181600e0160016101000a81548160ff0219169083151502179055509050508060000151600c600083602001516001600160a01b03166001600160a01b03168152602001908152602001600020819055507f7d84a6263ae0d98d3329bd7b46bb4e8d6f98cd35a7adb45c274c8b7fd5ebd5e08160000151338c8c8c8c89898e604051611e0999989796959493929190614abf565b60405180910390a15193505050505b95945050505050565b6004611e2c82611010565b6007811115611e3757fe5b14611e545760405162461bcd60e51b815260040161092a90614991565b6000818152600b6020908152604080832060085482517f6a42b8f80000000000000000000000000000000000000000000000000000000081529251919493611ec79342936001600160a01b0390931692636a42b8f892600480840193919291829003018186803b15801561115857600080fd5b905060005b60038301548110156120ab576120a3836003018281548110611eea57fe5b6000918252602090912001546004850180546001600160a01b039092169184908110611f1257fe5b9060005260206000200154856005018481548110611f2c57fe5b600091825260209182902001805460408051601f60027fffffffffffffffffffffffffffffffffffffffffffffffffffffffffffffffff610100600187161502019094169390930492830185900485028101850190915281815292830182828015611fd85780601f10611fad57610100808354040283529160200191611fd8565b820191906000526020600020905b815481529060010190602001808311611fbb57829003601f168201915b5050505050866006018581548110611fec57fe5b600091825260209182902001805460408051601f60027fffffffffffffffffffffffffffffffffffffffffffffffffffffffffffffffff6101006001871615020190941693909304928301859004850281018501909152818152928301828280156120985780601f1061206d57610100808354040283529160200191612098565b820191906000526020600020905b81548152906001019060200180831161207b57829003601f168201915b5050505050866127d9565b600101611ecc565b50600282018190556040517f9a2e42fd6722813d69113e7d0079d3d940171428df7373df9c7f7617cfda2892906120e59085908490614c21565b60405180910390a1505050565b604051610b0390614603565b612106612bbe565b506000828152600b602090815260408083206001600160a01b0385168452600f018252918290208251606081018452905460ff8082161515835261010082041692820192909252620100009091046bffffffffffffffffffffffff16918101919091525b92915050565b6202a30081565b6001546001600160a01b03163314801561219057503315155b6121ac5760405162461bcd60e51b815260040161092a906149d1565b60008054600180546001600160a01b038082167fffffffffffffffffffffffff00000000000000000000000000000000000000008086168217968790559092169092556040519282169390927ff9ffabca9c8276e99321725bcb43fb076a6c66a54b7f21c4e8146d8519b417dc92612228928692911690614673565b60405180910390a16001546040517fca4f2f25d0898edd99413412fb94012f9e54ec8142f9b093e7720646a95b16a99161099f9184916001600160a01b031690614673565b6000546001600160a01b031681565b60065481565b600561228d82611010565b600781111561229857fe5b146122b55760405162461bcd60e51b815260040161092a90614931565b6000818152600b60205260408120600e810180547fffffffffffffffffffffffffffffffffffffffffffffffffffffffffffff00ff16610100179055905b6003820154811015612446576008546004830180546001600160a01b0390921691630825f38f91908490811061232557fe5b906000526020600020015484600301848154811061233f57fe5b6000918252602090912001546004860180546001600160a01b03909216918690811061236757fe5b906000526020600020015486600501868154811061238157fe5b9060005260206000200187600601878154811061239a57fe5b9060005260206000200188600201546040518763ffffffff1660e01b81526004016123c99594939291906146f6565b6000604051808303818588803b1580156123e257600080fd5b505af11580156123f6573d6000803e3d6000fd5b50505050506040513d6000823e601f3d9081017fffffffffffffffffffffffffffffffffffffffffffffffffffffffffffffffe016820160405261243d919081019061315f565b506001016122f3565b507f712ae1383f79ac853f8d882153778e0260ef8f03b504e2866e0593e04d2b291f8260405161099f9190614784565b465b90565b6000600161248884611010565b600781111561249357fe5b146124b05760405162461bcd60e51b815260040161092a906148f1565b60028260ff1611156124d45760405162461bcd60e51b815260040161092a90614851565b6000838152600b6020526040902060088101546124fc576124f643600161277b565b60088201555b6001600160a01b0385166000908152600f820160205260409020805460ff16156125385760405162461bcd60e51b815260040161092a90614901565b600a5460088301546040517f782d6fe100000000000000000000000000000000000000000000000000000000815260009261262d926001600160a01b039091169163782d6fe19161258e918c919060040161468e565b60206040518083038186803b1580156125a657600080fd5b505afa1580156125ba573d6000803e3d6000fd5b505050506040513d601f19601f820116820180604052506125de91908101906132ec565b60095460088601546040517f782d6fe10000000000000000000000000000000000000000000000000000000081526001600160a01b039092169163782d6fe1916112ec918d919060040161468e565b905060ff851661265d5761265383600c0154826bffffffffffffffffffffffff16612756565b600c8401556126bd565b8460ff166001141561268f5761268583600b0154826bffffffffffffffffffffffff16612756565b600b8401556126bd565b8460ff16600214156126bd576126b783600d0154826bffffffffffffffffffffffff16612756565b600d8401555b815460017fffffffffffffffffffffffffffffffffffffffffffffffffffffffffffffff00909116177fffffffffffffffffffffffffffffffffffffffffffffffffffffffffffff00ff1661010060ff871602177fffffffffffffffffffffffffffffffffffff000000000000000000000000ffff16620100006bffffffffffffffffffffffff831602179091559150505b9392505050565b60008282018381101561274f5760405162461bcd60e51b815260040161092a906149a1565b60008282111561279d5760405162461bcd60e51b815260040161092a90614aa1565b50900390565b60008282016bffffffffffffffffffffffff808516908216101561274f5760405162461bcd60e51b815260040161092a906148d1565b6008546040516001600160a01b039091169063f2b0653790612807908890889088908890889060200161469c565b604051602081830303815290604052805190602001206040518263ffffffff1660e01b81526004016128399190614784565b60206040518083038186803b15801561285157600080fd5b505afa158015612865573d6000803e3d6000fd5b505050506040513d601f19601f820116820180604052506128899190810190613123565b156128a65760405162461bcd60e51b815260040161092a90614881565b6008546040517f3a66f9010000000000000000000000000000000000000000000000000000000081526001600160a01b0390911690633a66f901906128f7908890889088908890889060040161469c565b602060405180830381600087803b15801561291157600080fd5b505af1158015612925573d6000803e3d6000fd5b505050506040513d601f19601f820116820180604052506129499190810190613141565b505050505050565b6040518061020001604052806000815260200160006001600160a01b031681526020016000815260200160608152602001606081526020016060815260200160608152602001606081526020016000815260200160008152602001600081526020016000815260200160008152602001600081526020016000151581526020016000151581525090565b828054828255906000526020600020908101928215612a48579160200282015b82811115612a4857825182547fffffffffffffffffffffffff0000000000000000000000000000000000000000166001600160a01b039091161782556020909201916001909101906129fb565b50612a54929150612bde565b5090565b828054828255906000526020600020908101928215612a93579160200282015b82811115612a93578251825591602001919060010190612a78565b50612a54929150612c1a565b828054828255906000526020600020908101928215612aec579160200282015b82811115612aec5782518051612adc918491602090910190612b51565b5091602001919060010190612abf565b50612a54929150612c34565b828054828255906000526020600020908101928215612b45579160200282015b82811115612b455782518051612b35918491602090910190612b51565b5091602001919060010190612b18565b50612a54929150612c57565b828054600181600116156101000203166002900490600052602060002090601f016020900481019282601f10612b9257805160ff1916838001178555612a93565b82800160010185558215612a935791820182811115612a93578251825591602001919060010190612a78565b604080516060810182526000808252602082018190529181019190915290565b61247891905b80821115612a545780547fffffffffffffffffffffffff0000000000000000000000000000000000000000168155600101612be4565b61247891905b80821115612a545760008155600101612c20565b61247891905b80821115612a54576000612c4e8282612c7a565b50600101612c3a565b61247891905b80821115612a54576000612c718282612c7a565b50600101612c5d565b50805460018160011615610100020316600290046000825580601f10612ca05750612cbe565b601f016020900490600052602060002090810190612cbe9190612c1a565b50565b803561216a81614e2a565b600082601f830112612cdd57600080fd5b8135612cf0612ceb82614cd5565b614cae565b91508181835260208401935060208101905083856020840282011115612d1557600080fd5b60005b83811015612d415781612d2b8882612cc1565b8452506020928301929190910190600101612d18565b5050505092915050565b600082601f830112612d5c57600080fd5b8135612d6a612ceb82614cd5565b81815260209384019390925082018360005b83811015612d415781358601612d928882612e96565b8452506020928301929190910190600101612d7c565b600082601f830112612db957600080fd5b8135612dc7612ceb82614cd5565b81815260209384019390925082018360005b83811015612d415781358601612def8882612e96565b8452506020928301929190910190600101612dd9565b600082601f830112612e1657600080fd5b8135612e24612ceb82614cd5565b91508181835260208401935060208101905083856020840282011115612e4957600080fd5b60005b83811015612d415781612e5f8882612e80565b8452506020928301929190910190600101612e4c565b805161216a81614e3e565b803561216a81614e47565b805161216a81614e47565b600082601f830112612ea757600080fd5b8135612eb5612ceb82614cf6565b91508082526020830160208301858383011115612ed157600080fd5b612edc838284614dc0565b50505092915050565b600082601f830112612ef657600080fd5b8151612f04612ceb82614cf6565b91508082526020830160208301858383011115612f2057600080fd5b612edc838284614dcc565b60008083601f840112612f3d57600080fd5b50813567ffffffffffffffff811115612f5557600080fd5b602083019150836001820283011115612f6d57600080fd5b9250929050565b803561216a81614e50565b805161216a81614e59565b600060208284031215612f9c57600080fd5b6000612fa88484612cc1565b949350505050565b60008060008060008060c08789031215612fc957600080fd5b6000612fd58989612cc1565b9650506020612fe689828a01612cc1565b9550506040612ff789828a01612cc1565b945050606061300889828a01612e80565b935050608061301989828a01612e80565b92505060a061302a89828a01612e80565b9150509295509295509295565b600080600080600060a0868803121561304f57600080fd5b853567ffffffffffffffff81111561306657600080fd5b61307288828901612ccc565b955050602086013567ffffffffffffffff81111561308f57600080fd5b61309b88828901612e05565b945050604086013567ffffffffffffffff8111156130b857600080fd5b6130c488828901612da8565b935050606086013567ffffffffffffffff8111156130e157600080fd5b6130ed88828901612d4b565b925050608086013567ffffffffffffffff81111561310a57600080fd5b61311688828901612e96565b9150509295509295909350565b60006020828403121561313557600080fd5b6000612fa88484612e75565b60006020828403121561315357600080fd5b6000612fa88484612e8b565b60006020828403121561317157600080fd5b815167ffffffffffffffff81111561318857600080fd5b612fa884828501612ee5565b6000602082840312156131a657600080fd5b6000612fa88484612e80565b600080604083850312156131c557600080fd5b60006131d18585612e80565b92505060206131e285828601612cc1565b9150509250929050565b600080604083850312156131ff57600080fd5b600061320b8585612e80565b92505060206131e285828601612f74565b6000806000806060858703121561323257600080fd5b600061323e8787612e80565b945050602061324f87828801612f74565b935050604085013567ffffffffffffffff81111561326c57600080fd5b61327887828801612f2b565b95989497509550505050565b600080600080600060a0868803121561329c57600080fd5b60006132a88888612e80565b95505060206132b988828901612f74565b94505060406132ca88828901612f74565b93505060606132db88828901612e80565b925050608061311688828901612e80565b6000602082840312156132fe57600080fd5b6000612fa88484612f7f565b60006133168383613345565b505060200190565b600061274f83836134e7565b600061331683836134cd565b61333f81614d98565b82525050565b61333f81614d5b565b600061335982614d4e565b6133638185614d52565b935061336e83614d3c565b8060005b8381101561339c578151613386888261330a565b975061339183614d3c565b925050600101613372565b509495945050505050565b60006133b282614d4e565b6133bc8185614d52565b9350836020820285016133ce85614d3c565b8060005b8581101561340857848403895281516133eb858261331e565b94506133f683614d3c565b60209a909a01999250506001016133d2565b5091979650505050505050565b600061342082614d4e565b61342a8185614d52565b93508360208202850161343c85614d3c565b8060005b858110156134085784840389528151613459858261331e565b945061346483614d3c565b60209a909a0199925050600101613440565b600061348182614d4e565b61348b8185614d52565b935061349683614d3c565b8060005b8381101561339c5781516134ae888261332a565b97506134b983614d3c565b92505060010161349a565b61333f81614d66565b61333f81612478565b61333f6134e282612478565b612478565b60006134f282614d4e565b6134fc8185614d52565b935061350c818560208601614dcc565b61351581614df8565b9093019392505050565b60008154600181166000811461353c5760018114613580576135bf565b607f600283041661354d8187614d52565b7fffffffffffffffffffffffffffffffffffffffffffffffffffffffffffffff00841681529550506020850192506135bf565b6002820461358e8187614d52565b955061359985614d42565b60005b828110156135b85781548882015260019091019060200161359c565b8701945050505b505092915050565b61333f81614d9f565b61333f81614daa565b60006135e58385614d52565b93506135f2838584614dc0565b61351583614df8565b6000613608603283614d52565b7f476f7665726e6f72427261766f3a3a63617374566f7465496e7465726e616c3a81527f20696e76616c696420766f746520747970650000000000000000000000000000602082015260400192915050565b60006136676028836111ab565b7f42616c6c6f742875696e743235362070726f706f73616c49642c75696e74382081527f737570706f727429000000000000000000000000000000000000000000000000602082015260280192915050565b60006136c6603383614d52565b7f476f7665726e6f72427261766f3a3a696e697469616c697a653a2063616e206f81527f6e6c7920696e697469616c697a65206f6e636500000000000000000000000000602082015260400192915050565b6000613725602a83614d52565b7f476f7665726e6f72427261766f3a5f73657450656e64696e6741646d696e3a2081527f61646d696e206f6e6c7900000000000000000000000000000000000000000000602082015260400192915050565b6000613784605583614d52565b7f476f7665726e6f72427261766f3a3a71756575654f72526576657274496e746581527f726e616c3a206964656e746963616c2070726f706f73616c20616374696f6e2060208201527f616c726561647920717565756564206174206574610000000000000000000000604082015260600192915050565b6000613809602b83614d52565b7f476f7665726e6f72427261766f3a3a5f736574566f74696e67506572696f643a81527f2061646d696e206f6e6c79000000000000000000000000000000000000000000602082015260400192915050565b6000613868603383614d52565b7f476f7665726e6f72427261766f3a3a696e697469616c697a653a20696e76616c81527f69642074696d656c6f636b206164647265737300000000000000000000000000602082015260400192915050565b60006138c7602a83614d52565b7f476f7665726e6f72427261766f3a3a5f736574566f74696e6744656c61793a2081527f61646d696e206f6e6c7900000000000000000000000000000000000000000000602082015260400192915050565b6000613926603183614d52565b7f476f7665726e6f72427261766f3a3a70726f706f73653a20476f7665726e6f7281527f20427261766f206e6f7420616374697665000000000000000000000000000000602082015260400192915050565b60006139856002836111ab565b7f1901000000000000000000000000000000000000000000000000000000000000815260020192915050565b60006139be601b83614d52565b7f536166654d6174683a206164646974696f6e206f766572666c6f770000000000815260200192915050565b60006139f7603683614d52565b7f476f7665726e6f72427261766f3a3a5f736574566f74696e67506572696f643a81527f20696e76616c696420766f74696e6720706572696f6400000000000000000000602082015260400192915050565b6000613a56603183614d52565b7f476f7665726e6f72427261766f3a3a63617374566f7465496e7465726e616c3a81527f20766f74696e6720697320636c6f736564000000000000000000000000000000602082015260400192915050565b6000613ab5603483614d52565b7f476f7665726e6f72427261766f3a3a63617374566f7465496e7465726e616c3a81527f20766f74657220616c726561647920766f746564000000000000000000000000602082015260400192915050565b6000613b14603483614d52565b7f476f7665726e6f72427261766f3a3a5f736574566f74696e6744656c61793a2081527f696e76616c696420766f74696e672064656c6179000000000000000000000000602082015260400192915050565b6000613b73603583614d52565b7f476f7665726e6f72427261766f3a3a696e697469616c697a653a20696e76616c81527f69642070726f706f73616c207468726573686f6c640000000000000000000000602082015260400192915050565b6000613bd2604583614d52565b7f476f7665726e6f72427261766f3a3a657865637574653a2070726f706f73616c81527f2063616e206f6e6c79206265206578656375746564206966206974206973207160208201527f7565756564000000000000000000000000000000000000000000000000000000604082015260600192915050565b6000613c57602f83614d52565b7f476f7665726e6f72427261766f3a3a63617374566f746542795369673a20696e81527f76616c6964207369676e61747572650000000000000000000000000000000000602082015260400192915050565b6000613cb6602f83614d52565b7f476f7665726e6f72427261766f3a3a696e697469616c697a653a20696e76616c81527f696420766f74696e672064656c61790000000000000000000000000000000000602082015260400192915050565b6000613d15604483614d52565b7f476f7665726e6f72427261766f3a3a70726f706f73653a2070726f706f73616c81527f2066756e6374696f6e20696e666f726d6174696f6e206172697479206d69736d60208201527f6174636800000000000000000000000000000000000000000000000000000000604082015260600192915050565b6000613d9a602583614d52565b7f476f7665726e6f72427261766f3a3a696e697469616c697a653a2061646d696e81527f206f6e6c79000000000000000000000000000000000000000000000000000000602082015260400192915050565b6000613df9604083614d52565b7f476f7665726e6f72427261766f3a3a5f73657450726f706f73616c546872657381527f686f6c643a20696e76616c69642070726f706f73616c207468726573686f6c64602082015260400192915050565b6000613e58604483614d52565b7f476f7665726e6f72427261766f3a3a71756575653a2070726f706f73616c206381527f616e206f6e6c792062652071756575656420696620697420697320737563636560208201527f6564656400000000000000000000000000000000000000000000000000000000604082015260600192915050565b6000613edd601183614d52565b7f6164646974696f6e206f766572666c6f77000000000000000000000000000000815260200192915050565b6000613f166043836111ab565b7f454950373132446f6d61696e28737472696e67206e616d652c75696e7432353681527f20636861696e49642c6164647265737320766572696679696e67436f6e74726160208201527f6374290000000000000000000000000000000000000000000000000000000000604082015260430192915050565b6000613f9b603083614d52565b7f476f7665726e6f72427261766f3a3a5f696e6974696174653a2063616e206f6e81527f6c7920696e697469617465206f6e636500000000000000000000000000000000602082015260400192915050565b6000613ffa602c83614d52565b7f476f7665726e6f72427261766f3a3a70726f706f73653a206d7573742070726f81527f7669646520616374696f6e730000000000000000000000000000000000000000602082015260400192915050565b6000614059602e83614d52565b7f476f7665726e6f72427261766f3a5f61636365707441646d696e3a2070656e6481527f696e672061646d696e206f6e6c79000000000000000000000000000000000000602082015260400192915050565b60006140b8602f83614d52565b7f476f7665726e6f72427261766f3a3a63616e63656c3a2070726f706f7365722081527f61626f7665207468726573686f6c640000000000000000000000000000000000602082015260400192915050565b6000614117602883614d52565b7f476f7665726e6f72427261766f3a3a70726f706f73653a20746f6f206d616e7981527f20616374696f6e73000000000000000000000000000000000000000000000000602082015260400192915050565b6000614176605983614d52565b7f476f7665726e6f72427261766f3a3a70726f706f73653a206f6e65206c69766581527f2070726f706f73616c207065722070726f706f7365722c20666f756e6420616e60208201527f20616c72656164792070656e64696e672070726f706f73616c00000000000000604082015260600192915050565b60006141fb603283614d52565b7f476f7665726e6f72427261766f3a3a696e697469616c697a653a20696e76616c81527f6964206c3220626f626120616464726573730000000000000000000000000000602082015260400192915050565b600061425a605883614d52565b7f476f7665726e6f72427261766f3a3a70726f706f73653a206f6e65206c69766581527f2070726f706f73616c207065722070726f706f7365722c20666f756e6420616e60208201527f20616c7265616479206163746976652070726f706f73616c0000000000000000604082015260600192915050565b600061216a600083614d52565b60006142ec602483614d52565b7f476f7665726e6f72427261766f3a3a5f696e6974696174653a2061646d696e2081527f6f6e6c7900000000000000000000000000000000000000000000000000000000602082015260400192915050565b600061434b603f83614d52565b7f476f7665726e6f72427261766f3a3a70726f706f73653a2070726f706f73657281527f20766f7465732062656c6f772070726f706f73616c207468726573686f6c6400602082015260400192915050565b60006143aa603683614d52565b7f476f7665726e6f72427261766f3a3a63616e63656c3a2063616e6e6f7420636181527f6e63656c2065786563757465642070726f706f73616c00000000000000000000602082015260400192915050565b6000614409603383614d52565b7f476f7665726e6f72427261766f3a3a696e697469616c697a653a20696e76616c81527f6964206c322078626f6261206164647265737300000000000000000000000000602082015260400192915050565b6000614468603083614d52565b7f476f7665726e6f72427261766f3a3a5f73657450726f706f73616c546872657381527f686f6c643a2061646d696e206f6e6c7900000000000000000000000000000000602082015260400192915050565b60006144c7602983614d52565b7f476f7665726e6f72427261766f3a3a73746174653a20696e76616c696420707281527f6f706f73616c2069640000000000000000000000000000000000000000000000602082015260400192915050565b6000614526603083614d52565b7f476f7665726e6f72427261766f3a3a696e697469616c697a653a20696e76616c81527f696420766f74696e6720706572696f6400000000000000000000000000000000602082015260400192915050565b6000614585601583614d52565b7f7375627472616374696f6e20756e646572666c6f770000000000000000000000815260200192915050565b805160608301906145c284826134c4565b5060208201516145d560208501826145e8565b50604082015161182b60408501826145fa565b61333f81614d81565b61333f81614db5565b61333f81614d87565b600061216a8261365a565b600061461982613978565b915061462582856134d6565b60208201915061463582846134d6565b5060200192915050565b600061216a82613f09565b6020810161216a8284613345565b604081016146668285613336565b61274f60208301846134cd565b604081016146818285613345565b61274f6020830184613345565b604081016146668285613345565b60a081016146aa8288613345565b6146b760208301876134cd565b81810360408301526146c981866134e7565b905081810360608301526146dd81856134e7565b90506146ec60808301846134cd565b9695505050505050565b60a081016147048288613345565b61471160208301876134cd565b8181036040830152614723818661351f565b905081810360608301526146dd818561351f565b60808082528101614748818761334e565b9050818103602083015261475c8186613476565b905081810360408301526147708185613415565b905081810360608301526146ec81846133a7565b6020810161216a82846134cd565b608081016147a082876134cd565b6147ad60208301866134cd565b6147ba60408301856134cd565b611e186060830184613345565b606081016147d582866134cd565b6147e260208301856134cd565b612fa860408301846145e8565b608081016147fd82876134cd565b61480a60208301866145e8565b61481760408301856134cd565b611e1860608301846134cd565b6020810161216a82846135c7565b6020810161216a82846135d0565b6020808252810161274f81846134e7565b6020808252810161216a816135fb565b6020808252810161216a816136b9565b6020808252810161216a81613718565b6020808252810161216a81613777565b6020808252810161216a816137fc565b6020808252810161216a8161385b565b6020808252810161216a816138ba565b6020808252810161216a81613919565b6020808252810161216a816139b1565b6020808252810161216a816139ea565b6020808252810161216a81613a49565b6020808252810161216a81613aa8565b6020808252810161216a81613b07565b6020808252810161216a81613b66565b6020808252810161216a81613bc5565b6020808252810161216a81613c4a565b6020808252810161216a81613ca9565b6020808252810161216a81613d08565b6020808252810161216a81613d8d565b6020808252810161216a81613dec565b6020808252810161216a81613e4b565b6020808252810161216a81613ed0565b6020808252810161216a81613f8e565b6020808252810161216a81613fed565b6020808252810161216a8161404c565b6020808252810161216a816140ab565b6020808252810161216a8161410a565b6020808252810161216a81614169565b6020808252810161216a816141ee565b6020808252810161216a8161424d565b6020808252810161216a816142df565b6020808252810161216a8161433e565b6020808252810161216a8161439d565b6020808252810161216a816143fc565b6020808252810161216a8161445b565b6020808252810161216a816144ba565b6020808252810161216a81614519565b6020808252810161216a81614578565b6060810161216a82846145b1565b6101208101614ace828c6134cd565b614adb602083018b613336565b8181036040830152614aed818a61334e565b90508181036060830152614b018189613476565b90508181036080830152614b158188613415565b905081810360a0830152614b2981876133a7565b9050614b3860c08301866134cd565b614b4560e08301856134cd565b818103610100830152614b5881846134e7565b9b9a5050505050505050505050565b6101808101614b76828f6134cd565b614b83602083018e613345565b614b90604083018d6134cd565b8181036060830152614ba2818c6134e7565b9050614bb1608083018b6134cd565b614bbe60a083018a6134cd565b614bcb60c08301896134cd565b614bd860e08301886134cd565b614be66101008301876134cd565b614bf46101208301866134cd565b614c026101408301856134c4565b614c106101608301846134c4565b9d9c50505050505050505050505050565b6040810161466682856134cd565b60808101614c3d82886134cd565b614c4a60208301876145e8565b614c5760408301866145f1565b8181036060830152614c6a8184866135d9565b979650505050505050565b60808101614c8382866134cd565b614c9060208301856145e8565b614c9d60408301846145f1565b8181036060830152611e18816142d2565b60405181810167ffffffffffffffff81118282101715614ccd57600080fd5b604052919050565b600067ffffffffffffffff821115614cec57600080fd5b5060209081020190565b600067ffffffffffffffff821115614d0d57600080fd5b506020601f919091017fffffffffffffffffffffffffffffffffffffffffffffffffffffffffffffffe0160190565b60200190565b60009081526020902090565b5190565b90815260200190565b600061216a82614d75565b151590565b806111ab81614e20565b6001600160a01b031690565b60ff1690565b6bffffffffffffffffffffffff1690565b600061216a825b600061216a82614d5b565b600061216a82614d6b565b600061216a82614d87565b82818337506000910152565b60005b83811015614de7578181015183820152602001614dcf565b8381111561182b5750506000910152565b601f017fffffffffffffffffffffffffffffffffffffffffffffffffffffffffffffffe01690565b60088110612cbe57fe5b614e3381614d5b565b8114612cbe57600080fd5b614e3381614d66565b614e3381612478565b614e3381614d81565b614e3381614d8756fea365627a7a7231582048065fa65498c3ae3228d14d61d0e315c5ab7b731d3656ab16c2b02a42c418ef6c6578706572696d656e74616cf564736f6c63430005110040",
  "linkReferences": {},
  "deployedLinkReferences": {}
}